:200000001417830052144314011451148D143C140014E4140C140B14581791000017900018
:200020006017D6050217D70516178200070000121D1896085709170916180600D5058D09BA
:200040008709880989090117C405C505C605C005C105C205CA058B098C09011792009009EA
:2000600091098F098E09940992099309CD0770001817CD050000CA084F18C407C70558175F
:20008000900D1016C7081016C8080816C908401670001C17CB053717CC05581761185817AA
:2000A000C7081016C8080816C9084016CB086E18000070003917CA05C507C8055817700DC9
:2000C0000816DD03C7081016C8080816C9084016C7088D037000C8086D038618700058178C
:2000E000CC084D18C7081016C8080816C9084016C905C607C909C7088D03C8086D03700041
:20010000D00C8518C908DD038818DD03C908CD030000100C90180517D0050917D105EF18E2
:20012000CF089418940995183618CD0770001817CD050000CA08AE18C407C7055817900D24
:200140001016C7081016C8080816C908401670001C17CB053717CC055817C0185817C70858
:200160001016C8080816C9084016CB08CD18000070003917CA05C507C8055817700D08165A
:20018000DD03C7081016C8080816C9084016C7088D037000C8086D03E51870005817CC08B6
:2001A000AC18C7081016C8080816C9084016C905C607C909C7088D03C8086D037000D00C19
:2001C000E418C908DD03E718DD03C908CD030000C007C405C107C505C207C6053618CD071A
:2001E00070001817CD050000CA080819C407C7055817900D1016C7081016C8080816C9081E
:20020000401670001C17CB053717CC0558171A195817C7081016C8080816C9084016CB0808
:200220002719000070003917CA05C507C8055817700D0816DD03C7081016C8080816C908B8
:200240004016C7088D037000C8086D033F1970005817CC080619C7081016C8080816C9085B
:200260004016C905C607C909C7088D03C8086D037000D00C3E19C908DD034119DD03C908BD
:20028000CD030000D0084B19D10849198F090E09A8198E0A4F19140954085409EF18CD07F6
:2002A00070001817CD050000CA086819C407C7055817900D1016C7081016C8080816C908FD
:2002C000401670001C17CB053717CC0558177A195817C7081016C8080816C9084016CB08E8
:2002E0008719000070003917CA05C507C8055817700D0816DD03C7081016C8080816C90898
:200300004016C7088D037000C8086D039F1970005817CC086619C7081016C8080816C908DA
:200320004016C905C607C909C7088D03C8086D037000D00C9E19C908DD03A119DD03C9083C
:20034000CD030000100CFE030317D005A719EF18CD0770001817CD050000CA08C119C4073E
:20036000C7055817900D1016C7081016C8080816C908401670001C17CB053717CC05581774
:20038000D3195817C7081016C8080816C9084016CB08E019000070003917CA05C507C80504
:2003A0005817700D0816DD03C7081016C8080816C9084016C7088D037000C8086D03F81929
:2003C00070005817CC08BF19C7081016C8080816C9084016C905C607C909C7088D03C808EC
:2003E0006D037000D00CF719C908DD03FA19DD03C908CD03FF03100D021AD4075506D205A4
:200400001409061AFE17D4050000A819CD0770001817CD050000CA081F1AC407C70558179A
:20042000900D1016C7081016C8080816C908401670001C17CB053717CC055817311A581734
:20044000C7081016C8080816C9084016CB083E1A000070003917CA05C507C8055817700D53
:200460000816DD03C7081016C8080816C9084016C7088D037000C8086D03561A7000581716
:20048000CC081D1AC7081016C8080816C9084016C905C607C909C7088D03C8086D037000CB
:2004A000D00C551AC908DD03581ADD03C908CD03D2070314920B5F1ACE07F20036185E1ABA
:0204C000001723
:00000001FF
