:0207FE00ED0FFD
:2000000034178300E40F001785005214431401140014801470140014E4140C140B145817CB
:2000200091000017900003179B000217630030006A17D0050217D105101782000700001220
:2000400025189008510911091E180600E6058E09850986099F09A009A1090117C905DC05BA
:20006000DD05DE05E205E305E405CB05CC05CD05D905DA05DB05C805830993035817C405CC
:200080000117920081093103820912034017D60580098A0997099509940987093000D40893
:2000A0005C18D5087318C007100D310342027B18D7050517C2057F1812026D18100C6618EC
:2000C0000417D4050917D50502037F18D6086B180917C2057F1894097F188709000070186B
:2000E0004017D6057F18100CF703800AE702F0030317D4057F18CA0503178107C20558178A
:20010000DF081016E0080816E10840167000C808FD19B0005814DF081016E0080816E1081F
:200120004016C605DF081016E0080816E1084016C505C9071700DF088403DC07DF05E2077D
:20014000AE18E0086403DD07E005E307AE18E108C403DE07E105E40730000000E505C607C4
:2001600058169000C507DF081016E0080816E108401684070000C605D408C918D508E0187B
:20018000C007100D31034202E818D7050517C205EC181202DA18100CD3180417D40509171F
:2001A000D5050203EC18D608D8180917C205EC189409EC1887090000DD184017D605EC1847
:2001C000100CF703800AE702F0030317D405EC18CA0503178107C205E507170000175A19E7
:2001E000000041190917A01909177D1909175A190817A01908177D1908175A190717A0198D
:2002000007177D1907175A190617A01906177D1906175A190517A01905177D1905175A196A
:200220000417A01904177D1904175A190317A01903177D1903175A190217A01902177D191A
:2002400002175A190117A01901177D1901175A190017C3190017C919C9071700C5079000D9
:20026000900F3E1900000000C5079000700F3E1900000000C5079000D00F3E1985098309AA
:200280006319C507900083090817130045190000C9071700C607900F9000CF19000000009F
:2002A000C607700F9000CF1900000000C607D00F9000CF19C50990004307C50860199000D8
:2002C000C50863199000C50866199000C50869199000C5086C199000C5086F199000C508F6
:2002E00072199000C50875199000C5087819900000008309C6079000CF19C5099000430791
:200300008309C50884199000C50887199000C5088A199000C5088D199000C5089019900051
:20032000C50893199000C50896199000C50899199000C5089C1990000000C6079000CF1942
:20034000C5099000430783090000C508A8199000C508AB199000C508AE199000C508B1196F
:200360009000C508B4199000C508B7199000C508BA199000C508BD199000C508C0199000FD
:20038000C6079000CF19C50990004307830990008419C50990004307900083098419C90786
:2003A00017000717C90573034F18000000000D17C905D3034F18000000000117C9059303B2
:2003C0004F180E024C1A7202F01981090317D3052E021E03E607D2050012530962033B1A0A
:2003E0000000F219D7071A001A001A000115D8053B1A5817C40500004F18D30722021700CA
:20040000E119061A0A1A181A261A341AD20853091309371A1309CA07CB058B0A0B09D807F6
:200420000A022015D905EB023F124B090B093B1A1309CA07CC058C0A0C09D8070A02201519
:20044000DA05EC023F124C090C093B1A1309CA07CD058D0A0D09D8070A022015DB05ED0264
:200460003F124D093E033B1A0000361A371A03171300381A00005817DF081016E00808169D
:20048000E1084016700000002203F802F91914170804590208094F180D09CB07DC05CC07D6
:2004A000DD05CD07DE05D907E205DA07E305DB07E4055817DF081016E0080816E108401687
:1604C00070008E092203F802F91914170804590208094F180017CD
:00000001FF
