:20000000142F8301522C432C012C512C8D2C3C2C002CE42C0C2C0B2C582F9101002F9001DD
:20002000602F960B022F970B162F82010700002A1D3016119712171216300600950B0D1372
:20004000071308130913012F840B850B860B800B810B820B8A0B0B130C13012F9201101313
:2000600011130F130E131413121313138D0FD000182F8D0B00008A114F30840F870B582F96
:20008000101B102E8711102E8811082E8911402ED0001C2F8B0B372F8C0B582F6130582FFD
:2000A0008711102E8811082E8911402E8B116E300000D000392F8A0B850F880B582FD01AF4
:2000C000082E8D278711102E8811082E8911402E87110D25D0008811CD248630D000582F58
:2000E0008C114D308711102E8811082E8911402E890B860F891387110D258811CD24D00050
:200100009019853089118D2788308D2789118D25000010189030052F900B092F910BEF30D1
:200120008F1194301413953036308D0FD000182F8D0B00008A11AE30840F870B582F101B6E
:20014000102E8711102E8811082E8911402ED0001C2F8B0B372F8C0B582FC030582F871170
:20016000102E8811082E8911402E8B11CD300000D000392F8A0B850F880B582FD01A082E36
:200180008D278711102E8811082E8911402E87110D25D0008811CD24E530D000582F8C11D1
:2001A000AC308711102E8811082E8911402E890B860F891387110D258811CD24D000901924
:2001C000E43089118D27E7308D2789118D250000800F840B810F850B820F860B36308D0F44
:2001E000D000182F8D0B00008A110831840F870B582F101B102E8711102E8811082E891128
:20020000402ED0001C2F8B0B372F8C0B582F1A31582F8711102E8811082E8911402E8B1120
:2002200027310000D000392F8A0B850F880B582FD01A082E8D278711102E8811082E8911D8
:20024000402E87110D25D0008811CD243F31D000582F8C1106318711102E8811082E891132
:20026000402E890B860F891387110D258811CD24D00090193E3189118D2741318D27891101
:200280008D25000090114B31911149310F130E12A8310E154F31141294109412EF308D0F8A
:2002A000D000182F8D0B00008A116831840F870B582F101B102E8711102E8811082E891107
:2002C000402ED0001C2F8B0B372F8C0B582F7A31582F8711102E8811082E8911402E8B1100
:2002E00087310000D000392F8A0B850F880B582FD01A082E8D278711102E8811082E8911B8
:20030000402E87110D25D0008811CD249F31D000582F8C1166318711102E8811082E8911B1
:20032000402E890B860F891387110D258811CD24D00090199E3189118D27A1318D27891180
:200340008D2500001018CE27032F900BA731EF308D0FD000182F8D0B00008A11C131840F9F
:20036000870B582F101B102E8711102E8811082E8911402ED0001C2F8B0B372F8C0B582F19
:20038000D331582F8711102E8811082E8911402E8B11E0310000D000392F8A0B850F880B84
:2003A000582FD01A082E8D278711102E8811082E8911402E87110D25D0008811CD24F831E8
:2003C000D000582F8C11BF318711102E8811082E8911402E890B860F891387110D25881164
:2003E000CD24D0009019F73189118D27FA318D2789118D25CF27101A0232940F950C920BBD
:2004000014120632FE2F940B0000A8318D0FD000182F8D0B00008A111F32840F870B582FF6
:20042000101B102E8711102E8811082E8911402ED0001C2F8B0B372F8C0B582F3132582F87
:200440008711102E8811082E8911402E8B113E320000D000392F8A0B850F880B582FD01A7E
:20046000082E8D278711102E8811082E8911402E87110D25D0008811CD245632D000582FE2
:200480008C111D328711102E8811082E8911402E890B860F891387110D258811CD24D000DA
:2004A0009019553289118D2758328D2789118D25920F032C12175F328E0F920336305E3282
:0204C000002F0B
:00000001FF
