:20000000341783005214431401140014801470140014E4140C140B14581791000017900022
:200020005E17D0050217D10510178200070000121D1890085109110916180600E6058E09CE
:20004000850986099F09A009A1090117C905DC05DD05DE05E205E305E405CB05CC05CD05D1
:20006000D905DA05DB05C805830993035817C4050117920081090917C20580098A099709E5
:200080009509960994098709D4085118D5086818C007100D310342027018D7050517C205B1
:2000A000741812026218100C5B180417D4050917D50502037418D60860180917C20574184F
:2000C000940974188709000065184017D6057418100CF703800AE702F0030317D405741831
:2000E000CA0503178107C2055817DF081016E0080816E10840167000C808F119B0005814A1
:20010000DF081016E0080816E1084016C605DF081016E0080816E1084016C505C9071700BF
:20012000DF088403DC07DF05E207A218E0086403DD07E005E307A218E108C403DE07E105B0
:20014000E407A218E505C60758169000C507DF081016E0080816E108401684070000C605D1
:20016000D408BD18D508D418C007100D31034202DC18D7050517C205E0181202CE18100CE8
:20018000C7180417D4050917D5050203E018D608CC180917C205E0189409E01887090000CF
:2001A000D1184017D605E018100CF703800AE702F0030317D405E018CA0503178107C2058D
:2001C000E507170000174E1900003519091794190917711909174E190817941908177119DD
:2001E00008174E19071794190717711907174E19061794190617711906174E1905179419C3
:200200000517711905174E19041794190417711904174E19031794190317711903174E19DA
:20022000021794190217711902174E19011794190117711901174E190017B7190017BD191B
:20024000C9071700C5079000900F321900000000C5079000700F321900000000C5079000EF
:20026000D00F3219850983095719C507900083090817130039190000C9071700C607900F0B
:200280009000C31900000000C607700F9000C31900000000C607D00F9000C319C5099000C4
:2002A0004307C50854199000C50857199000C5085A199000C5085D199000C50860199000E4
:2002C000C50863199000C50866199000C50869199000C5086C19900000008309C6079000BF
:2002E000C319C509900043078309C50878199000C5087B199000C5087E199000C5088119B4
:200300009000C50884199000C50887199000C5088A199000C5088D199000C508901990004D
:200320000000C6079000C319C5099000430783090000C5089C199000C5089F199000C5085C
:20034000A2199000C508A5199000C508A8199000C508AB199000C508AE199000C508B1193D
:200360009000C508B4199000C6079000C319C50990004307830990007819C509900043078D
:20038000900083097819C90717000717C90573034418000000000D17C905D30344180000E7
:2003A00000000117C905930344180E02401A7202E41981090317D3052E021E03E607D205F9
:2003C0000012530962032F1A0000E619D7071A001A001A000115D8052F1A5817C405000062
:2003E0004418D30722021700D519FA19FE190C1A1A1A281AD208530913092B1A1309CA0754
:20040000CB058B0A0B09D8070A022015D905EB023F124B090B092F1A1309CA07CC058C0A22
:200420000C09D8070A022015DA05EC023F124C090C092F1A1309CA07CD058D0A0D09D8076B
:200440000A022015DB05ED023F124D093E032F1A00002A1A2B1A031713002C1A00005817F0
:20046000DF081016E0080816E1084016700000002203F802ED191417080459020809441896
:200480000D09CB07DC05CC07DD05CD07DE05D907E205DA07E305DB07E4055817DF08101650
:1E04A000E0080816E108401670008E092203F802ED19141708045902080944180017B7
:00000001FF
