:20000000341783005214431401140014801470140014E4140C140B1403179B000217630098
:2000200030005817910000179000E017CA050217CB050A1782000700001222188A084B095E
:200040000B091B180600EF058909A209A309A409980999099A099C099D099E09A509A60994
:20006000A7090117D105D205D305CE05830993035817C4050317CF050A17EB05EF07EA0522
:20008000001208176B040117920081093103820912034017EE05800990099709AD09AC0941
:2000A00085093000EC085F18ED087618C007100D310342027E18D7050517C2058218120235
:2000C0007018100C69180417EC050917ED0502038218EE086E180917C2058218AC098218F2
:2000E0008509000073184017EE058218100CF503800AE502F0030317EC058218D0050317F7
:200100008107C2055817E2081016E3080816E40840167000CE08531ACF0717000000000026
:20012000D807E905DC0725042908A218D907E905DD0726042908A218DA07E905DE07270455
:200140002908A2182909E90A03171300A51800005817E2081016E3080816E408401670006B
:2001600003171300B1180000EC08C118ED08D818C007100D31034202E018D7050517C205C4
:20018000E4181202D218100CCB180417EC050917ED050203E418EE08D0180917C205E41886
:2001A000AC09E41885090000D5184017EE05E418100CF503800AE502F0030317EC05E4184E
:2001C000D00503178107C2055817E2081016E3080816E408401670000000B0005814E208A1
:2001E0001016E3080816E4084016CD05E2081016E3080816E4084016CC051317CE05CF07BD
:20020000170000000000E2088403D107E20530001519E3086403D207E30500001519E4080C
:20022000C403D307E4050E091519CD0758169000CC07E2081016E3080816E4084016840764
:20024000CD050000EC082F19ED084619C007100D310342024E19D7050517C205521912023B
:200260004019100C39190417EC050917ED0502035219EE083E190917C2055219AC0952196A
:200280008509000043194017EE055219100CF503800AE502F0030317EC055219D0050317E2
:2002A0008107C205E907170000000017CA190000AF190917101A0917ED190917CA19081794
:2002C000101A0817ED190817CA190717101A0717ED190717CA190617101A0617ED190617D9
:2002E000CA190517101A0517ED190517CA190417101A0417ED190417CA190317101A0317F2
:20030000ED190317CA190217101A0217ED190217CA190117101A0117ED190117CA1900170A
:20032000331A0017391ACF071700C307AA19CC079000900FA71900000000CC079000700FE8
:20034000A71900000000CC079000D00FA7198C098309D3194C07900083098C09D019CC070E
:200360009000830908171300B3190000CF07170000000000CD07900F90003F1A000000001A
:20038000CD07700F90003F1A00000000CD07D00F90003F1ACC0990004307CC08D019900089
:2003A000CC08D3199000CC08D6199000CC08D9199000CC08DC199000CC08DF199000CC08BB
:2003C000E2199000CC08E5199000CC08E819900000008309CD0790003F1ACC0990004307D3
:2003E0008309CC08F4199000CC08F7199000CC08FA199000CC08FD199000CC08001A90001D
:20040000CC08031A9000CC08061A9000CC08091A9000CC080C1A90000000CD0790003F1A09
:20042000CC099000430783090000CC08181A9000CC081B1A9000CC081E1A9000CC08211AA7
:200440009000CC08241A9000CC08271A9000CC082A1A9000CC082D1A9000CC08301A9000C4
:20046000CD0790003F1ACC099000430783099000F419CC099000430790008309F419CF0739
:200480001700000000000917CF0573035218000000000F17CF05D30352180000000003171D
:2004A000CF05930352185817E2081016E3080816E4084016CD05EB0722021700AF1A0A17B5
:2004C000EA080217EB05A81A651A661AA81A1E17EB05D007D405940A14091705011468076E
:2004E0001E0017091000C605A6029B09CD077000DB07DF05A41A3217EB05D007D505950A46
:2005000015091705011468071E0017091000C705A7029B09CD077000DB07E005A41A0717CF
:20052000EB05D007D605960A16091705011468071E0017091000C805A8029B09CD0770000D
:20054000DB07E1050217C905A51A00002203521803171300A91ACD077000AE1AA41A490299
:20056000CA1A6202BC1AD707F014E80597071E00DB055817C405AB1A620381090A17EB05F5
:20058000EF07EA05001208176B04CD07700029025903A41A8909DF07DC05E007DD05E10743
:2005A000DE05D407D105D507D205CD077000D607D305C607D805C707D905C807DA0552188D
:0205C000001722
:00000001FF
