:20000000342F8301522C432C012C002C802C702C002CE42C0C2C0B2C582F9101002F9001E7
:200020005E2F900B022F910B102F82010700002A1D3010119112111216300600A60B0E1386
:20004000051306131F1320132113012F890B9C0B9D0B9E0BA20BA30BA40B8B0B8C0B8D0B4B
:20006000990B9A0B9B0B880B03130327582F840B012F92010113092F820B00130A131713B2
:2000800015131613141307139411513095116830800F101A412682207030970B052F820BA5
:2000A00074300222623010185B30042F940B092F950B0224743096116030092F820B74301F
:2000C00014137430071300006530402F960B74301018C7270015C721C027032F940B743083
:2000E0008A0B032F010F820B582F9F11102EA011082EA111402ED0008811F131D001582C40
:200100009F11102EA011082EA111402E860B9F11102EA011082EA111402E850B890F6700D5
:200120009F1104259C0F9F0BA20FA230A011C4249D0FA00BA30FA230A11184259E0FA10BE6
:20014000A40FA230A50B860F582E9001850F9F11102EA011082EA111402E040F0000860B91
:200160009411BD309511D430800F101A41268220DC30970B052F820BE0300222CE301018B8
:20018000C730042F940B092F950B0224E0309611CC30092F820BE0301413E03007130000BF
:2001A000D130402F960BE0301018C7270015C721C027032F940BE0308A0B032F010F820BDF
:2001C000A50F6700002F4E3100003531092F9431092F7131092F4E31082F9431082F71318D
:2001E000082F4E31072F9431072F7131072F4E31062F9431062F7131062F4E31052F943143
:20020000052F7131052F4E31042F9431042F7131042F4E31032F9431032F7131032F4E315A
:20022000022F9431022F7131022F4E31012F9431012F7131012F4E31002FB731002FBD319B
:20024000890F6700850F9001101F323100000000850F9001D01E323100000000850F90014D
:20026000901F3231051303135731850F90010313082F630039310000890F6700860F101FB4
:200280009001C33100000000860FD01E9001C33100000000860F901F9001C33185139001DF
:2002A000830E85115431900185115731900185115A31900185115D31900185116031900133
:2002C00085116331900185116631900185116931900185116C31900100000313860F9001E4
:2002E000C33185139001830E031385117831900185117B31900185117E3190018511813179
:20030000900185118431900185118731900185118A31900185118D319001851190319001E2
:200320000000860F9001C33185139001830E0313000085119C31900185119F319001851152
:20034000A23190018511A53190018511A83190018511AB3190018511AE3190018511B131BB
:2003600090018511B4319001860F9001C33185139001830E03139001783185139001830E02
:20038000900103137831890F6700072F890BC3264430000000000D2F890B832744300000F9
:2003A0000000012F890B032744300E204032C222E4310113032F930B4E200E26A60F920B6A
:2003C000002A9312C2242F320000E631970F6A006A006A00012D980B2F32582F840B0000C4
:2003E0004430930F42206700D531FA31FE310C321A3228329211931213122B3213128A0F52
:200400008B0B0B150B12980F0A20202D990BCB213F2A8B120B122F3213128A0F8C0B0C1561
:200420000C12980F0A20202D9A0BCC213F2A8C120C122F3213128A0F8D0B0D150D12980F2A
:200440000A20202D9B0BCD213F2A8D124E262F3200002A322B32032F63002C320000582F81
:200460009F11102EA011082EA111402ED00000004224C823ED31142F0808892208124430BC
:200480000D128B0F9C0B8C0F9D0B8D0F9E0B990FA20B9A0FA30B9B0FA40B582F9F11102EFA
:1E04A000A011082EA111402ED0000E134224C823ED31142F0808892208124430002F1C
:00000001FF
