:20000000342F8301522C432C012C002C802C702C002CE42C0C2C0B2C582F9101002F9001E7
:20002000032FBB01022FC3007000E02F8A0B022F8B0B0A2F82010700002A22300A118B120C
:200040000B121B300600AF0B0913221323132413181319131A131C131D131E132513261335
:200060002713012F910B920B930B8E0B03130327582F840B032F8F0B0A2FAB0BAF0FAA0B22
:20008000002A082FAB08012F92010113412602130226402FAE0B0013101317132D132C13CA
:2000A00005137000AC115F30AD117630800F101A412682207E30970B052F820B823002225F
:2000C000703010186930042FAC0B092FAD0B02248230AE116E30092F820B82302C13823048
:2000E000051300007330402FAE0B82301018C5270015C521C027032FAC0B8230900B032F0D
:20010000010F820B582FA211102EA311082EA411402ED0008E1153328F0F670000000000C4
:20012000980FA90B9C0F25082910A230990FA90B9D0F26082910A2309A0FA90B9E0F270807
:200140002910A2302912A915032F6300A5300000582FA211102EA311082EA411402ED000DC
:20016000032F6300B1300000AC11C130AD11D830800F101A41268220E030970B052F820B60
:20018000E4300222D2301018CB30042FAC0B092FAD0B0224E430AE11D030092F820BE43056
:2001A0002C13E43005130000D530402FAE0BE4301018C5270015C521C027032FAC0BE430A0
:2001C000900B032F010F820B582FA211102EA311082EA411402ED0000000D001582CA21158
:2001E000102EA311082EA411402E8D0BA211102EA311082EA411402E8C0B132F8E0B8F0F0E
:20020000670000000000A2110425910FA20B70001531A311C424920FA30B00001531A411B2
:200220008425930FA40B0E1215318D0F582E90018C0FA211102EA311082EA411402E040FFF
:200240008D0B0000AC112F31AD114631800F101A412682204E31970B052F820B5231022269
:20026000403110183931042FAC0B092FAD0B02245231AE113E31092F820B52312C135231C0
:20028000051300004331402FAE0B52311018C5270015C521C027032FAC0B5231900B032FF8
:2002A000010F820BA90F67000000002FCA310000AF31092F1032092FED31092FCA31082F3E
:2002C0001032082FED31082FCA31072F1032072FED31072FCA31062F1032062FED31062F59
:2002E000CA31052F1032052FED31052FCA31042F1032042FED31042FCA31032F1032032F72
:20030000ED31032FCA31022F1032022FED31022FCA31012F1032012FED31012FCA31002F8A
:200320003332002F39328F0F6700830FAA318C0F9001101FA731000000008C0F9001D01EFF
:20034000A731000000008C0F9001901FA7310C130313D3318C0E900103130C13D0318C0FDD
:2003600090010313082F6300B33100008F0F6700000000008D0F101F90013F320000000086
:200380008D0FD01E90013F32000000008D0F901F90013F328C139001830E8C11D031900194
:2003A0008C11D33190018C11D63190018C11D93190018C11DC3190018C11DF3190018C1188
:2003C000E23190018C11E53190018C11E8319001000003138D0F90013F328C139001830E79
:2003E00003138C11F43190018C11F73190018C11FA3190018C11FD3190018C110032900129
:200400008C11033290018C11063290018C11093290018C110C32900100008D0F90013F32A0
:200420008C139001830E031300008C11183290018C111B3290018C111E3290018C11213284
:2004400090018C11243290018C11273290018C112A3290018C112D3290018C113032900159
:200460008D0F90013F328C139001830E03139001F4318C139001830E90010313F4318F0F26
:20048000670000000000092F8F0BC3265230000000000F2F8F0B8327523000000000032F82
:2004A0008F0B03275230582FA211102EA311082EA411402E8D0BAB0F42206700AF320A2F3C
:2004C000AA11022FAB0BA83265326632A8321E2FAB0B900F940B14151412170A012CA80E03
:2004E0006E0017126000860B46211B138D0FD0009B0F9F0BA432322FAB0B900F950B1515C9
:200500001512170A012CA80E6E0017126000870B47211B138D0FD0009B0FA00BA432072FC4
:20052000AB0B900F960B16151612170A012CA80E6E0017126000880B48211B138D0FD000E1
:200540009B0FA10B022F890BA532000042245230032F6300A9328D0FD000AE32A432892086
:20056000CA32C220BC32970FF02CA80B170F6E009B0B582F840BAB32C22401130A2FAB0B24
:20058000AF0FAA0B002A082FAB088D0FD00049208926A43209139F0F9C0BA00F9D0BA10F02
:2005A0009E0B940F910B950F920B8D0FD000960F930B860F980B870F990B880F9A0B523033
:0205C000002F0A
:00000001FF
