:20000000142F8301000000000000522C432C012C512C8D2C3C2C002CE42C0C2C0B2C582F2F
:200020009101002F9001632F960B022F970B162F82010700002A20301611971217121930DD
:200040000600950B0D13071308130913012F840B850B860B800B810B820B8A0B0B130C1333
:20006000012F9201101311130F130E131413121313138D0FD000182F8D0B00008A11523059
:20008000840F870B582F101B102E8711102E8811082E8911402ED0001C2F8B0B372F8C0BF0
:2000A000582F6430582F8711102E8811082E8911402E8B1171300000D000392F8A0B850F53
:2000C000880B582FD01A082E8D278711102E8811082E8911402E87110D25D0008811CD2461
:2000E0008930D000582F8C1150308711102E8811082E8911402E890B860F891387110D2597
:200100008811CD24D0009019883089118D278B308D2789118D25000010189330052F900B61
:20012000092F910BF2308F1197301413983039308D0FD000182F8D0B00008A11B130840FB0
:20014000870B582F101B102E8711102E8811082E8911402ED0001C2F8B0B372F8C0B582F3B
:20016000C330582F8711102E8811082E8911402E8B11D0300000D000392F8A0B850F880BC8
:20018000582FD01A082E8D278711102E8811082E8911402E87110D25D0008811CD24E8301B
:2001A000D000582F8C11AF308711102E8811082E8911402E890B860F891387110D25881197
:2001C000CD24D0009019E73089118D27EA308D2789118D250000800F840B810F850B820F67
:2001E000860B39308D0FD000182F8D0B00008A110B31840F870B582F101B102E8711102EF8
:200200008811082E8911402ED0001C2F8B0B372F8C0B582F1D31582F8711102E8811082E58
:200220008911402E8B112A310000D000392F8A0B850F880B582FD01A082E8D278711102E9A
:200240008811082E8911402E87110D25D0008811CD244231D000582F8C1109318711102E2C
:200260008811082E8911402E890B860F891387110D258811CD24D0009019413189118D2755
:2002800044318D2789118D25000090114E3191114C310F130E12AB310E155231141294101C
:2002A0009412F2308D0FD000182F8D0B00008A116B31840F870B582F101B102E8711102E09
:2002C0008811082E8911402ED0001C2F8B0B372F8C0B582F7D31582F8711102E8811082E38
:2002E0008911402E8B118A310000D000392F8A0B850F880B582FD01A082E8D278711102E7A
:200300008811082E8911402E87110D25D0008811CD24A231D000582F8C1169318711102EAB
:200320008811082E8911402E890B860F891387110D258811CD24D0009019A13189118D2734
:20034000A4318D2789118D2500001018CE27032F900BAA31F2308D0FD000182F8D0B000096
:200360008A11C431840F870B582F101B102E8711102E8811082E8911402ED0001C2F8B0B7A
:20038000372F8C0B582FD631582F8711102E8811082E8911402E8B11E3310000D000392FB6
:2003A0008A0B850F880B582FD01A082E8D278711102E8811082E8911402E87110D25D000DF
:2003C0008811CD24FB31D000582F8C11C2318711102E8811082E8911402E890B860F89130E
:2003E00087110D258811CD24D0009019FA3189118D27FD318D2789118D25CF27101A053232
:20040000940F950C920B14120932FE2F940B0000AB318D0FD000182F8D0B00008A112232B8
:20042000840F870B582F101B102E8711102E8811082E8911402ED0001C2F8B0B372F8C0B4C
:20044000582F3432582F8711102E8811082E8911402E8B1141320000D000392F8A0B850F0B
:20046000880B582FD01A082E8D278711102E8811082E8911402E87110D25D0008811CD24BD
:200480005932D000582F8C1120328711102E8811082E8911402E890B860F891387110D254F
:2004A0008811CD24D0009019583289118D275B328D2789118D25920F032C121762328E0FAA
:0804C000920339306132002F74
:00000001FF
