:20000000342F8301522C432C012C002C802C702C002CE42C0C2C0B2C582F9101002F9001E7
:20002000602F900B022F910B102F82010700002A1D3010119112111216300600A60B0E1384
:20004000051306131F1320132113012F890B9C0B9D0B9E0BA20BA30BA40B8B0B8C0B8D0B4B
:20006000990B9A0B9B0B880B03130327582F840B012F92010113412602130226402F960B1D
:2000800000130A1317131513141307139411533095116A30800F101A412682207230970B2F
:2000A000052F820B76300222643010185D30042F940B092F950B0224763096116230092F85
:2000C000820B763014137630071300006730402F960B76301018C7270015C721C027032F8D
:2000E000940B76308A0B032F010F820B582F9F11102EA011082EA111402ED0008811F3314E
:20010000D001582C9F11102EA011082EA111402E860B9F11102EA011082EA111402E850B7F
:20012000890F67009F1104259C0F9F0BA20FA430A011C4249D0FA00BA30FA430A11184253C
:200140009E0FA10BA40FA430A50B860F582E9001850F9F11102EA011082EA111402E040FC7
:200160000000860B9411BF309511D630800F101A41268220DE30970B052F820BE230022245
:20018000D0301018C930042F940B092F950B0224E2309611CE30092F820BE2301413E230A7
:2001A00007130000D330402F960BE2301018C7270015C721C027032F940BE2308A0B032F5C
:2001C000010F820BA50F6700002F503100003731092F9631092F7331092F5031082F9631BD
:2001E000082F7331082F5031072F9631072F7331072F5031062F9631062F7331062F503153
:20020000052F9631052F7331052F5031042F9631042F7331042F5031032F9631032F733102
:20022000032F5031022F9631022F7331022F5031012F9631012F7331012F5031002FB931F7
:20024000002FBF31890F6700850F9001101F343100000000850F9001D01E3431000000004F
:20026000850F9001901F3431051303135931850F90010313082F63003B310000890F67004D
:20028000860F101F9001C53100000000860FD01E9001C53100000000860F901F9001C5313E
:2002A00085139001830E85115631900185115931900185115C31900185115F319001851124
:2002C0006231900185116531900185116831900185116B31900185116E31900100000313DE
:2002E000860F9001C53185139001830E031385117A31900185117D31900185118031900193
:2003000085118331900185118631900185118931900185118C31900185118F3190018511E2
:20032000923190010000860F9001C53185139001830E0313000085119E3190018511A1311F
:2003400090018511A43190018511A73190018511AA3190018511AD3190018511B031900102
:200360008511B33190018511B6319001860F9001C53185139001830E031390017A318513A4
:200380009001830E900103137A31890F6700072F890BC3264630000000000D2F890B832747
:2003A000463000000000012F890B032746300E204232C222E6310113032F930B4E200E2640
:2003C000A60F920B002A9312C22431320000E831970F6A006A006A00012D980B3132582FFB
:2003E000840B00004630930F42206700D731FC3100320E321C322A329211931213122D3270
:2004000013128A0F8B0B0B150B12980F0A20202D990BCB213F2A8B120B12313213128A0F59
:200420008C0B0C150C12980F0A20202D9A0BCC213F2A8C120C12313213128A0F8D0B0D1536
:200440000D12980F0A20202D9B0BCD213F2A8D124E26313200002C322D32032F63002E323A
:200460000000582F9F11102EA011082EA111402ED00000004224C823EF31142F08088922C1
:20048000081246300D128B0F9C0B8C0F9D0B8D0F9E0B990FA20B9A0FA30B9B0FA40B582F58
:2004A0009F11102EA011082EA111402ED0000E134224C823EF31142F080889220812463057
:0204C000002F0B
:00000001FF
