:0207FE00F90FF1
:2000000014178300E40F0017850052144314011451148D143C140014E4140C140B145817C1
:200020009100001790006317D6050217D705161782000700001220189608570917091918EF
:200040000600D5058D098709880989090117C405C505C605C005C105C205CA058B098C09B7
:2000600001179200900991098F098E09940992099309CD0770001817CD050000CA0852181F
:20008000C407C7055817900D1016C7081016C8080816C908401670001C17CB053717CC05FB
:2000A000581764185817C7081016C8080816C9084016CB087118000070003917CA05C50725
:2000C000C8055817700D0816DD03C7081016C8080816C9084016C7088D037000C8086D0350
:2000E000891870005817CC085018C7081016C8080816C9084016C905C607C909C7088D036E
:20010000C8086D037000D00C8818C908DD038B18DD03C908CD030000100C93180517D00526
:200120000917D105F218CF089718940998183918CD0770001817CD050000CA08B118C407F0
:20014000C7055817900D1016C7081016C8080816C908401670001C17CB053717CC05581796
:20016000C3185817C7081016C8080816C9084016CB08D018000070003917CA05C507C80548
:200180005817700D0816DD03C7081016C8080816C9084016C7088D037000C8086D03E8185C
:2001A00070005817CC08AF18C7081016C8080816C9084016C905C607C909C7088D03C8081F
:2001C0006D037000D00CE718C908DD03EA18DD03C908CD030000C007C405C107C505C20745
:2001E000C6053918CD0770001817CD050000CA080B19C407C7055817900D1016C7081016EA
:20020000C8080816C908401670001C17CB053717CC0558171D195817C7081016C808081640
:20022000C9084016CB082A19000070003917CA05C507C8055817700D0816DD03C70810167A
:20024000C8080816C9084016C7088D037000C8086D03421970005817CC080919C708101655
:20026000C8080816C9084016C905C607C909C7088D03C8086D037000D00C4119C908DD0306
:200280004419DD03C908CD030000D0084E19D1084C198F090E09AB198E0A52191409540814
:2002A0005409F218CD0770001817CD050000CA086B19C407C7055817900D1016C70810167E
:2002C000C8080816C908401670001C17CB053717CC0558177D195817C7081016C808081620
:2002E000C9084016CB088A19000070003917CA05C507C8055817700D0816DD03C70810165A
:20030000C8080816C9084016C7088D037000C8086D03A21970005817CC086919C7081016D4
:20032000C8080816C9084016C905C607C909C7088D03C8086D037000D00CA119C908DD03E5
:20034000A419DD03C908CD030000100CFE030317D005AA19F218CD0770001817CD05000041
:20036000CA08C419C407C7055817900D1016C7081016C8080816C908401670001C17CB0588
:200380003717CC055817D6195817C7081016C8080816C9084016CB08E319000070003917D8
:2003A000CA05C507C8055817700D0816DD03C7081016C8080816C9084016C7088D03700012
:2003C000C8086D03FB1970005817CC08C219C7081016C8080816C9084016C905C607C909C4
:2003E000C7088D03C8086D037000D00CFA19C908DD03FD19DD03C908CD03FF03100D051A79
:20040000D4075506D2051409091AFE17D4050000AB19CD0770001817CD050000CA08221A8A
:20042000C407C7055817900D1016C7081016C8080816C908401670001C17CB053717CC0557
:200440005817341A5817C7081016C8080816C9084016CB08411A000070003917CA05C507DD
:20046000C8055817700D0816DD03C7081016C8080816C9084016C7088D037000C8086D03AC
:20048000591A70005817CC08201AC7081016C8080816C9084016C905C607C909C7088D0326
:2004A000C8086D037000D00C581AC908DD035B1ADD03C908CD03D2070314920B621ACE07B9
:0804C000F2003918611A00175F
:00000001FF
