:20000000342F8301000000000000522C432C012C002C802C702C002CE42C0C2C0B2C582F39
:200020009101002F9001032FBB01022FC30070006A2F900B022F910B102F82010700002A28
:2000400025301011911211121E300600A60B0E13051306131F1320132113012F890B9C0B09
:200060009D0B9E0BA20BA30BA40B8B0B8C0B8D0B990B9A0B9B0B880B03130327582F840B88
:20008000012F92010113412602130226402F960B00130A13171315131413071370009411FD
:2000A0005C3095117330800F101A412682207B30970B052F820B7F3002226D30101866306D
:2000C000042F940B092F950B02247F3096116B30092F820B7F3014137F300713000070305B
:2000E000402F960B7F301018C7270015C721C027032F940B7F308A0B032F010F820B582FDC
:200100009F11102EA011082EA111402ED0008811FD31D001582C9F11102EA011082EA11177
:20012000402E860B9F11102EA011082EA111402E850B890F67009F1104259C0F9F0BA20F5D
:20014000AE30A011C4249D0FA00BA30FAE30A11184259E0FA10BA40F70000000A50B860F25
:20016000582E9001850F9F11102EA011082EA111402E040F0000860B9411C9309511E030E7
:20018000800F101A41268220E830970B052F820BEC300222DA301018D330042F940B092FA3
:2001A000950B0224EC309611D830092F820BEC301413EC3007130000DD30402F960BEC3037
:2001C0001018C7270015C721C027032F940BEC308A0B032F010F820BA50F6700002F5A31FF
:2001E00000004131092FA031092F7D31092F5A31082FA031082F7D31082F5A31072FA03125
:20020000072F7D31072F5A31062FA031062F7D31062F5A31052FA031052F7D31052F5A31EA
:20022000042FA031042F7D31042F5A31032FA031032F7D31032F5A31022FA031022F7D319A
:20024000022F5A31012FA031012F7D31012F5A31002FC331002FC931890F6700850F9001D8
:20026000101F3E3100000000850F9001D01E3E3100000000850F9001901F3E3105130313ED
:200280006331850F90010313082F630045310000890F6700860F101F9001CF31000000002B
:2002A000860FD01E9001CF3100000000860F901F9001CF3185139001830E851160319001E3
:2002C00085116331900185116631900185116931900185116C31900185116F3190018511C3
:2002E0007231900185117531900185117831900100000313860F9001CF3185139001830E37
:20030000031385118431900185118731900185118A31900185118D3190018511903190015D
:2003200085119331900185119631900185119931900185119C3190010000860F9001CF31D9
:2003400085139001830E031300008511A83190018511AB3190018511AE3190018511B1314C
:2003600090018511B43190018511B73190018511BA3190018511BD3190018511C031900192
:20038000860F9001CF3185139001830E03139001843185139001830E900103138431890F73
:2003A0006700072F890BC3264F30000000000D2F890B83274F3000000000012F890B0327BD
:2003C0004F300E204C32C222F0310113032F930B4E200E26A60F920B002A9312C2243B32F3
:2003E0000000F231970F6A006A006A00012D980B3B32582F840B00004F30930F42206700B8
:20040000E13106320A32183226323432921193121312373213128A0F8B0B0B150B12980F40
:200420000A20202D990BCB213F2A8B120B123B3213128A0F8C0B0C150C12980F0A20202D73
:200440009A0BCC213F2A8C120C123B3213128A0F8D0B0D150D12980F0A20202D9B0BCD212F
:200460003F2A8D124E263B32000036323732032F630038320000582F9F11102EA011082E67
:20048000A111402ED00000004224C823F931142F0808892208124F300D128B0F9C0B8C0F5F
:2004A0009D0B8D0F9E0B990FA20B9A0FA30B9B0FA40B582F9F11102EA011082EA111402ECE
:1604C000D0000E134224C823F931142F0808892208124F30002FF4
:00000001FF
