:20000000341783005214431401140014801470140014E4140C140B14581791000017900022
:200020006017D0050217D10510178200070000121D1890085109110916180600E6058E09CC
:20004000850986099F09A009A1090117C905DC05DD05DE05E205E305E405CB05CC05CD05D1
:20006000D905DA05DB05C805830993035817C4050117920081093103820912034017D60582
:2000800080098A099709950994098709D4085318D5086A18C007100D310342027218D70571
:2000A0000517C205761812026418100C5D180417D4050917D50502037618D60862180917B5
:2000C000C2057618940976188709000067184017D6057618100CF703800AE702F00303173B
:2000E000D4057618CA0503178107C2055817DF081016E0080816E10840167000C808F31954
:20010000B0005814DF081016E0080816E1084016C605DF081016E0080816E1084016C5058A
:20012000C9071700DF088403DC07DF05E207A418E0086403DD07E005E307A418E108C40390
:20014000DE07E105E407A418E505C60758169000C507DF081016E0080816E10840168407CF
:200160000000C605D408BF18D508D618C007100D31034202DE18D7050517C205E218120217
:20018000D018100CC9180417D4050917D5050203E218D608CE180917C205E2189409E21851
:2001A00087090000D3184017D605E218100CF703800AE702F0030317D405E218CA05031746
:2001C0008107C205E50717000017501900003719091796190917731909175019081796192B
:2001E0000817731908175019071796190717731907175019061796190617731906175019D3
:20020000051796190517731905175019041796190417731904175019031796190317731982
:20022000031750190217961902177319021750190117961901177319011750190017B91977
:200240000017BF19C9071700C5079000900F341900000000C5079000700F34190000000058
:20026000C5079000D00F3419850983095919C50790008309081713003B190000C907170015
:20028000C607900F9000C51900000000C607700F9000C51900000000C607D00F9000C519B0
:2002A000C50990004307C50856199000C50859199000C5085C199000C5085F199000C50887
:2002C00062199000C50865199000C50868199000C5086B199000C5086E1990000000830909
:2002E000C6079000C519C509900043078309C5087A199000C5087D199000C50880199000B6
:20030000C50883199000C50886199000C50889199000C5088C199000C5088F199000C50815
:20032000921990000000C6079000C519C5099000430783090000C5089E199000C508A11978
:200340009000C508A4199000C508A7199000C508AA199000C508AD199000C508B01990006D
:20036000C508B3199000C508B6199000C6079000C519C50990004307830990007A19C509C8
:2003800090004307900083097A19C90717000717C90573034618000000000D17C905D30365
:2003A0004618000000000117C905930346180E02421A7202E61981090317D3052E021E0359
:2003C000E607D205001253096203311A0000E819D7071A001A001A000115D805311A581761
:2003E000C40500004618D30722021700D719FC19001A0E1A1C1A2A1AD208530913092D1A67
:200400001309CA07CB058B0A0B09D8070A022015D905EB023F124B090B09311A1309CA079A
:20042000CC058C0A0C09D8070A022015DA05EC023F124C090C09311A1309CA07CD058D0AF7
:200440000D09D8070A022015DB05ED023F124D093E03311A00002C1A2D1A031713002E1A62
:2004600000005817DF081016E0080816E1084016700000002203F802EF1914170804590292
:20048000080946180D09CB07DC05CC07DD05CD07DE05D907E205DA07E305DB07E4055817EE
:2004A000DF081016E0080816E108401670008E092203F802EF1914170804590208094618BB
:0204C000001723
:00000001FF
