:20000000142F8301522C432C012C002C902C3C2C002CE42C0C2C0B2C582F9101002F90012B
:200020000D13071308130913012F840B850B860B800B810B820B8A0B0B130C13012F920136
:200040000E130F13101311131413121313138D0FD000182F8D0B00008A114030840F870B29
:20006000582F101B102E8711102E8811082E8911402ED0001C2F8B0B372F8C0B582F52302C
:20008000582F8711102E8811082E8911402E8B115F300000D000392F8A0B850F880B582F86
:2000A000D01A082E8D278711102E8811082E8911402E87110D25D0008811CD247730D00024
:2000C000582F8C113E308711102E8811082E8911402E890B860F891387110D258811CD24C8
:2000E000D0009019763089118D2779308D2789118D25000010188130052F8E0B092F8F0B72
:20010000E030901185301413863027308D0FD000182F8D0B00008A119F30840F870B582FE4
:20012000101B102E8711102E8811082E8911402ED0001C2F8B0B372F8C0B582FB130582F0C
:200140008711102E8811082E8911402E8B11BE300000D000392F8A0B850F880B582FD01A03
:20016000082E8D278711102E8811082E8911402E87110D25D0008811CD24D630D000582F67
:200180008C119D308711102E8811082E8911402E890B860F891387110D258811CD24D0005F
:2001A0009019D53089118D27D8308D2789118D250000800F840B810F850B820F860B273084
:2001C0008D0FD000182F8D0B00008A11F930840F870B582F101B102E8711102E8811082E56
:2001E0008911402ED0001C2F8B0B372F8C0B582F0B31582F8711102E8811082E8911402E52
:200200008B1118310000D000392F8A0B850F880B582FD01A082E8D278711102E8811082E05
:200220008911402E87110D25D0008811CD243031D000582F8C11F7308711102E8811082E71
:200240008911402E890B860F891387110D258811CD24D00090192F3189118D2732318D273F
:2002600089118D2500008E113C318F113A3110131112993111154031141294109412E030F4
:200280008D0FD000182F8D0B00008A115931840F870B582F101B102E8711102E8811082E34
:2002A0008911402ED0001C2F8B0B372F8C0B582F6B31582F8711102E8811082E8911402E31
:2002C0008B1178310000D000392F8A0B850F880B582FD01A082E8D278711102E8811082EE5
:2002E0008911402E87110D25D0008811CD249031D000582F8C1157318711102E8811082EF0
:200300008911402E890B860F891387110D258811CD24D00090198F3189118D2792318D27BE
:2003200089118D2500001018D127032F8E0B9831E0308D0FD000182F8D0B00008A11B231E4
:20034000840F870B582F101B102E8711102E8811082E8911402ED0001C2F8B0B372F8C0B2D
:20036000582FC431582F8711102E8811082E8911402E8B11D1310000D000392F8A0B850FCE
:20038000880B582FD01A082E8D278711102E8811082E8911402E87110D25D0008811CD249E
:2003A000E931D000582F8C11B0318711102E8811082E8911402E890B860F891387110D2512
:2003C0008811CD24D0009019E83189118D27EB318D2789118D25D027101AF331940F002986
:2003E000920B1412F731FE2F940B000099318D0FD000182F8D0B00008A111032840F870B2F
:20040000582F101B102E8711102E8811082E8911402ED0001C2F8B0B372F8C0B582F2232B6
:20042000582F8711102E8811082E8911402E8B112F320000D000392F8A0B850F880B582F10
:20044000D01A082E8D278711102E8811082E8911402E87110D25D0008811CD244732D000AE
:20046000582F8C110E328711102E8811082E8911402E890B860F891387110D258811CD2452
:20048000D0009019463289118D2749328D2789118D25920F032C12175032910F920327309B
:0204A0004F32D9
:00000001FF
