:2000000014178300521443140114001490143C140014E4140C140B14581791000017900066
:200020008A098409850986090117C005C105C205C70588098909011792008B098C098D09C1
:200040008E098F099009CA0770001817CA050000C7083C18C007C4055817900D1016C408E8
:200060001016C5080816C608401670001C17C8053717C90558174E185817C4081016C508BC
:200080000816C6084016C8085B18000070003917C705C107C5055817700D0816DA03C4080A
:2000A0001016C5080816C6084016C4088A037000C5086A03731870005817C9083A18C408AF
:2000C0001016C5080816C6084016C605C207C609C4088A03C5086A037000D00C7218C60851
:2000E000DA037518DA03C608CA030000100C7D180517CB050917CC058118CD0880188F09F2
:200100002318CA0770001817CA050000C7089A18C007C4055817900D1016C4081016C50863
:200120000816C608401670001C17C8053717C9055817AC185817C4081016C5080816C608A4
:200140004016C808B918000070003917C705C107C5055817700D0816DA03C4081016C508E4
:200160000816C6084016C4088A037000C5086A03D11870005817C9089818C4081016C50832
:200180000816C6084016C605C207C609C4088A03C5086A037000D00CD018C608DA03D3185D
:2001A000DA03C608CA030000CB08DD18CC08DB188D090E093A198E0AE1180F094F084F09E0
:2001C0008118CA0770001817CA050000C708FA18C007C4055817900D1016C4081016C508E5
:2001E0000816C608401670001C17C8053717C90558170C195817C4081016C5080816C60883
:200200004016C8081919000070003917C705C107C5055817700D0816DA03C4081016C508C2
:200220000816C6084016C4088A037000C5086A03311970005817C908F818C4081016C508B0
:200240000816C6084016C605C207C609C4088A03C5086A037000D00C3019C608DA033319DA
:20026000DA03C608CA030000100CFE030317CB0539198118CA0770001817CA050000C70806
:200280005319C007C4055817900D1016C4081016C5080816C608401670001C17C805371771
:2002A000C905581765195817C4081016C5080816C6084016C8087219000070003917C7052C
:2002C000C107C5055817700D0816DA03C4081016C5080816C6084016C4088A037000C5080E
:2002E0006A038A1970005817C9085119C4081016C5080816C6084016C605C207C609C408A4
:200300008A03C5086A037000D00C8919C608DA038C19DA03C608CA03FD03100D9419CF07C0
:200320000311D0050F099819FE17CF0500003A19CA0770001817CA050000C708B119C00730
:20034000C4055817900D1016C4081016C5080816C608401670001C17C8053717C9055817A6
:20036000C3195817C4081016C5080816C6084016C808D019000070003917C705C107C5055A
:200380005817700D0816DA03C4081016C5080816C6084016C4088A037000C5086A03E81971
:2003A00070005817C908AF19C4081016C5080816C6084016C605C207C609C4088A03C5083B
:2003C0006A037000D00CE719C608DA03EA19DA03C608CA03D0070314900BF119CE07F000E6
:0403E0002318F019D5
:00000001FF
