:2000000014178300521443140114001490143C140014E4140C140B14581791000017900066
:200020008D098709880989090117C405C505C605C005C105C205CA058B098C09011792000D
:20004000900991098F098E09940992099309CD0770001817CD050000CA084018C407C70564
:200060005817900D1016C7081016C8080816C908401670001C17CB053717CC0558175218D9
:200080005817C7081016C8080816C9084016CB085F18000070003917CA05C507C805581706
:2000A000700D0816DD03C7081016C8080816C9084016C7088D037000C8086D0377187000AD
:2000C0005817CC083E18C7081016C8080816C9084016C905C607C909C7088D03C8086D0371
:2000E0007000D00C7618C908DD037918DD03C908CD030000100C81180517D0050917D105C7
:20010000E018CF088518940986182718CD0770001817CD050000CA089F18C407C705581725
:20012000900D1016C7081016C8080816C908401670001C17CB053717CC055817B1185817B9
:20014000C7081016C8080816C9084016CB08BE18000070003917CA05C507C8055817700DD8
:200160000816DD03C7081016C8080816C9084016C7088D037000C8086D03D618700058179B
:20018000CC089D18C7081016C8080816C9084016C905C607C909C7088D03C8086D03700050
:2001A000D00CD518C908DD03D818DD03C908CD030000C007C405C107C505C207C60527185F
:2001C000CD0770001817CD050000CA08F918C407C7055817900D1016C7081016C80808164B
:2001E000C908401670001C17CB053717CC0558170B195817C7081016C8080816C90840163A
:20020000CB081819000070003917CA05C507C8055817700D0816DD03C7081016C8080816E5
:20022000C9084016C7088D037000C8086D03301970005817CC08F718C7081016C80808169A
:20024000C9084016C905C607C909C7088D03C8086D037000D00C2F19C908DD033219DD03FB
:20026000C908CD030000D0083C19D1083A198F090E0999198E0A4019140954085409E01864
:20028000CD0770001817CD050000CA085919C407C7055817900D1016C7081016C808081629
:2002A000C908401670001C17CB053717CC0558176B195817C7081016C8080816C908401619
:2002C000CB087819000070003917CA05C507C8055817700D0816DD03C7081016C8080816C5
:2002E000C9084016C7088D037000C8086D03901970005817CC085719C7081016C808081619
:20030000C9084016C905C607C909C7088D03C8086D037000D00C8F19C908DD039219DD037A
:20032000C908CD030000100CFE030317D0059819E018CD0770001817CD050000CA08B21985
:20034000C407C7055817900D1016C7081016C8080816C908401670001C17CB053717CC0538
:200360005817C4195817C7081016C8080816C9084016CB08D119000070003917CA05C507A0
:20038000C8055817700D0816DD03C7081016C8080816C9084016C7088D037000C8086D038D
:2003A000E91970005817CC08B019C7081016C8080816C9084016C905C607C909C7088D03E9
:2003C000C8086D037000D00CE819C908DD03EB19DD03C908CD03FF03100DF319D407001143
:2003E000D2051409F719FE17D40500009919CD0770001817CD050000CA08101AC407C70581
:200400005817900D1016C7081016C8080816C908401670001C17CB053717CC055817221A63
:200420005817C7081016C8080816C9084016CB082F1A000070003917CA05C507C805581790
:20044000700D0816DD03C7081016C8080816C9084016C7088D037000C8086D03471A700037
:200460005817CC080E1AC7081016C8080816C9084016C905C607C909C7088D03C8086D03FB
:200480007000D00C461AC908DD03491ADD03C908CD03D2070314920B501ACE07F20027181E
:0204A0004F1AF1
:00000001FF
