:20000000142F8301522C432C012C002C902C3C2C002CE42C0C2C0B2C582F9101002F90012B
:200020000A13041305130613012F800B810B820B870B08130913012F92010B130C130D139E
:200040000E130F1310138A0FD000182F8A0B000087113C30800F840B582F101B102E84114E
:20006000102E8511082E8611402ED0001C2F880B372F890B582F4E30582F8411102E8511D4
:20008000082E8611402E88115B300000D000392F870B810F850B582FD01A082E8A2784112A
:2000A000102E8511082E8611402E84110A25D0008511CA247330D000582F89113A30841186
:2000C000102E8511082E8611402E860B820F861384110A258511CA24D0009019723086115C
:2000E0008A2775308A2786118A25000010187D30052F8B0B092F8C0B81308D1180300F1324
:2001000023308A0FD000182F8A0B000087119A30800F840B582F101B102E8411102E85116E
:20012000082E8611402ED0001C2F880B372F890B582FAC30582F8411102E8511082E8611BC
:20014000402E8811B9300000D000392F870B810F850B582FD01A082E8A278411102E851104
:20016000082E8611402E84110A25D0008511CA24D130D000582F891198308411102E851109
:20018000082E8611402E860B820F861384110A258511CA24D0009019D03086118A27D3305D
:2001A0008A2786118A2500008B11DD308C11DB300D130E123A310E15E1300F128F108F12B7
:2001C00081308A0FD000182F8A0B00008711FA30800F840B582F101B102E8411102E8511F0
:2001E000082E8611402ED0001C2F880B372F890B582F0C31582F8411102E8511082E86119B
:20020000402E881119310000D000392F870B810F850B582FD01A082E8A278411102E8511E2
:20022000082E8611402E84110A25D0008511CA243131D000582F8911F8308411102E851187
:20024000082E8611402E860B820F861384110A258511CA24D0009019303186118A273331DA
:200260008A2786118A2500001018CE27032F8B0B393181308A0FD000182F8A0B00008711AA
:200280005331800F840B582F101B102E8411102E8511082E8611402ED0001C2F880B372F14
:2002A000890B582F6531582F8411102E8511082E8611402E881172310000D000392F870B5C
:2002C000810F850B582FD01A082E8A278411102E8511082E8611402E84110A25D0008511D8
:2002E000CA248A31D000582F891151318411102E8511082E8611402E860B820F86138411EE
:200300000A258511CA24D0009019893186118A278C318A2786118A25CD27101A94318F0F7A
:200320000329900B0F129831FE2F8F0B00003A318A0FD000182F8A0B00008711B131800F8C
:20034000840B582F101B102E8411102E8511082E8611402ED0001C2F880B372F890B582F4B
:20036000C331582F8411102E8511082E8611402E8811D0310000D000392F870B810F850BDA
:20038000582FD01A082E8A278411102E8511082E8611402E84110A25D0008511CA24E83130
:2003A000D000582F8911AF318411102E8511082E8611402E860B820F861384110A258511B3
:2003C000CA24D0009019E73186118A27EA318A2786118A25900F032C1017F1318E0F9003FD
:0403E0002330F031A5
:00000001FF
